:020000040800F2
:1000000030070020CD010008C9040008950300084E
:10001000C504000875020008E3090008000000009C
:100020000000000000000000000000004906000879
:100030007902000800000000510500085D07000873
:10004000E7010008E7010008E7010008E7010008F0
:10005000E7010008E7010008E7010008E7010008E0
:10006000E7010008E7010008E7010008E7010008D0
:10007000E7010008E7010008E7010008E7010008C0
:10008000E7010008E7010008E7010008E7010008B0
:10009000E7010008E7010008E7010008E7010008A0
:1000A000E7010008E7010008E7010008E701000890
:1000B000E7010008E7010008E7010008E701000880
:1000C000E7010008E7010008E7010008E701000870
:1000D000E7010008C1070008E7010008E701000880
:1000E000E7010008E7010008E7010008E701000850
:1000F000E7010008E7010008E7010008E701000840
:10010000E7010008E7010008E7010008E70100082F
:10011000E7010008E7010008E7010008E70100081F
:10012000E7010008E7010008E7010008E70100080F
:1001300000F002F800F03AF80AA090E8000C8244BF
:100140008344AAF10107DA4501D100F02FF8AFF29C
:10015000090EBAE80F0013F0010F18BFFB1A43F0A5
:1001600001031847A4110000C4110000103A24BF75
:1001700078C878C1FAD8520724BF30C830C144BF0C
:1001800004680C607047000000230024002500264E
:10019000103A28BF78C1FBD8520728BF30C148BFEA
:1001A0000B6070471FB51FBD10B510BD00F033F8D0
:1001B0001146FFF7F7FF00F061FC00F051F803B4BF
:1001C000FFF7F2FF03BC00F00EFC00000948804777
:1001D00009480047FEE7FEE7FEE7FEE7FEE7FEE729
:1001E000FEE7FEE7FEE7FEE704480549054A064B41
:1001F000704700006107000831010008300100204D
:100200003007002030030020300300207047704783
:10021000704770477047754600F028F8AE460500F5
:100220006946534620F00700854618B020B5FFF711
:10023000DBFFBDE820404FF000064FF000074FF015
:1002400000084FF0000B21F00701AC46ACE8C009F4
:10025000ACE8C009ACE8C009ACE8C0098D467047FD
:100260000446AFF300802046FFF7A9FF004870471F
:10027000CC00002000BFFEE770472DE9F0410246A8
:1002800000250026002000230024002791F803C049
:100290000CF00F0591F803C00CF0100CBCF1000F2E
:1002A00003D091F802C04CEA050591F800C0BCF1FA
:1002B000000F31D0146800202BE04FF0010C0CFA35
:1002C00000F3B1F800C00CEA03069E4220D183007F
:1002D0004FF00F0C0CFA03F7BC4305FA03FC4CEA91
:1002E000040491F803C0BCF1280F06D14FF0010CB3
:1002F0000CFA00FCC2F814C00AE091F803C0BCF18B
:10030000480F05D14FF0010C0CFA00FCC2F810C0E8
:10031000401C0828D1D31460B1F800C0BCF1FF0F15
:1003200034DD546800202EE000F1080C4FF0010885
:1003300008FA0CF3B1F800C00CEA03069E4221D182
:1003400083004FF00F0C0CFA03F7BC4305FA03FCD3
:100350004CEA040491F803C0BCF1280F05D100F168
:10036000080C08FA0CF8C2F8148091F803C0BCF12C
:10037000480F07D100F1080C4FF0010808FA0CF8FB
:10038000C2F81080401C0828CED35460BDE8F0812C
:100390000161704700BFFEE708B50121442000F06D
:1003A000D9F81820ADF8000048208DF80300694600
:1003B0000648FFF762FF0120ADF8000028208DF805
:1003C000030069460248FFF758FF08BD00180140C6
:1003D0000008014008B501214FF4FE7000F0BAF8A2
:1003E0004FF6FF70ADF8000010208DF803000320D9
:1003F0008DF8020069462C48FFF73FFF4FF6FF706B
:10040000ADF8000010208DF8030003208DF80200E5
:1004100069462648FFF731FF4FF6FF70ADF8000040
:1004200010208DF8030003208DF802006946204853
:10043000FFF723FF4FF6FF70ADF8000010208DF896
:10044000030003208DF8020069461A48FFF715FFE4
:100450004FF6FF10ADF8000010208DF803000320C8
:100460008DF8020069461448FFF707FF4FF6FF704A
:10047000ADF8000010208DF8030003208DF8020075
:1004800069460E48FFF7F9FE4FF6FF70ADF8000021
:1004900010208DF8030003208DF8020069460848FB
:1004A000FFF7EBFE08BD0000000C014000200140FA
:1004B00000140140001001400008014000180140F4
:1004C000001C014000BFFEE77047000070B500212E
:1004D00000230F22C47804B3154C246804F4E064AC
:1004E000C4F5E064210AC1F10403CA40447804FA67
:1004F00003F184781440214309010E4C0678A1557C
:10050000047804F01F050124AC4005786D11AD009E
:1005100005F1E025C5F8004109E0047804F01F0565
:100520000124AC40044D0678761145F8264070BD94
:100530000CED00E000E400E080E100E0024901434E
:10054000024A1160704700000000FA050CED00E05F
:100550007047000029B1064A92690243044B9A6130
:1005600004E0034A92698243014B9A61704700009C
:100570000010024030B500210022002400232D4D40
:100580006D6805F00C0121B1042905D0082923D19B
:1005900005E0294D056022E0274D05601FE0254D4F
:1005A0006D6805F47012234D6D6805F480340225E2
:1005B00005EB92421CB9214D554305600BE01D4DE2
:1005C0006D6805F400351DB11C4D5543056002E012
:1005D000194D5543056002E0174D056000BF00BF8F
:1005E000144D6D6805F0F0010909154D6B5C056847
:1005F000DD4045600F4D6D6805F4E061090A104D5E
:100600006B5C4568DD4085600A4D6D6805F460519E
:10061000C90A0B4D6B5C4568DD40C560054D6D68D2
:1006200005F44041890B074D6B5CC568B5FBF3F5DC
:10063000056130BD0010024000127A0000093D0043
:100640002200002032000020704710B500F002F8B0
:1006500010BD00000CB500200190009033480068E8
:1006600040F480303149086000BF3048006800F431
:10067000003000900198401C0190009818B9019832
:10068000B0F5A06FF1D12948006800F4003010B136
:100690000120009001E0002000900098012843D143
:1006A0002348006840F010002149086008460068AF
:1006B00020F0030008600846006840F0020008606F
:1006C0001A4840681949486008464068486008462A
:1006D000406840F4806048600846406820F47C1020
:1006E00048600846406840F4E810486008460068E2
:1006F00040F08070086000BF0C48006800F0007097
:100700000028F9D00948406820F0030007494860F4
:100710000846406840F00200486000BF0348406857
:1007200000F00C000828F9D10CBD000000100240B8
:1007300000200240042808D14FF0E021096941F06F
:1007400004014FF0E022116107E04FF0E021096958
:1007500021F004014FF0E022116170477047000062
:1007600010B51348006840F00100114908600846C0
:100770004068104908400E494860084600680E4924
:1007800008400B4908600846006820F48020086093
:100790000846406820F4FE0048604FF41F0088605F
:1007A000FFF753FF4FF000600449086010BD0000E0
:1007B000001002400000FFF8FFFFF6FE08ED00E029
:1007C00010B540F225511D4800F04AF810B31B48FF
:1007D00000F002F9C4B21A48008800F40040C8B919
:1007E0001748008800F4804060B10A2C03D0002034
:1007F0001349088020E01248008840F40040104966
:10080000088019E00D2C06D10D48008840F4804086
:100810000B49088010E00A480088C0F30D00094920
:100820000C5407480088401C054908800846008889
:10083000902801DD0020088010BD00000038014034
:10084000200000203800002021B1828942F40052AB
:10085000828104E082894DF6FF731A4082817047DD
:1008600070B50246002400230025002040F66A16D9
:10087000B14200D100BFC1F3421501F01F030126B0
:1008800006FA03F3012D02D19689334006E0022DCA
:1008900002D1168A334001E0968A33400C120126B9
:1008A00006FA04F41688344013B10CB1012000E0BC
:1008B000002070BDF0B5034600240026002500206E
:1008C00040F66A17B94200D100BF1846C1F342147E
:1008D00001F01F06012707FA06F5012C01D10C30A3
:1008E00004E0022C01D1103000E014301AB1076886
:1008F0002F43076002E00768AF430760F0BD0000C8
:100900002DE9F04786B005460E460024A24600BFFA
:10091000A1460027B08900B100BF2F462C8A4CF6B3
:10092000FF700440F08804432C82AC894EF6F3102B
:100930000440B08831890843718908430443AC817D
:10094000AC8A4FF6FF400440B0890443AC8201A852
:10095000FFF710FE1F48874202D1DDF810A001E02A
:10096000DDF80CA0A88900F4004040B10AEBCA00F1
:1009700000EB0A1031684900B0FBF1F807E00AEB20
:10098000CA0000EB0A1031688900B0FBF1F864205E
:10099000B8FBF0F004012009642101FB1089A8894B
:1009A00000F4004040B1322000EBC900B0FBF1F090
:1009B00000F00700044308E0322000EB0910642136
:1009C000B0FBF1F000F00F0004432C8106B0BDE84D
:1009D000F08700000038014001468888C0F3080015
:1009E000704700BFFEE700BF7047000010B56FF012
:1009F0000400FFF79FFE0A4800680A49B0FBF1F0C7
:100A0000094908700846007800EB4001C1EBC010AE
:100A10004FF6FF7101EAC0000449088010BD0000D4
:100A20000400002000127A00180000201A000020A4
:100A30000146114A12884A434FF0E0235A610022CE
:100A40009A611A46126942F001021A6100BF4FF022
:100A5000E022106900F001021AB100F48032002A8D
:100A6000F5D04FF0E022126922F001024FF0E023AE
:100A70001A6100229A6170471A00002000BFFFF738
:100A8000B5FF4FF4A060FFF759FD4FF4E13000F0DF
:100A9000EBFBFFF79FFCFFF77FFCD3E3FB48FC4930
:100AA0000968405C61287AD1F849F9480068401C1F
:100AB000085C6228F7D1F64800688F30085C63282C
:100AC000F1D1F34800689030085C6428EBD1F1481C
:100AD000006808B9012000E00020EE490860EB48FA
:100AE000C078312804D18021EB48FFF751FC03E0A6
:100AF0004021E948FFF74CFCE4488079312805D1D2
:100B00004FF48041E548FFF743FC08E0DF48807977
:100B1000302804D14FF40051E048FFF739FCDB489E
:100B2000407A312805D14FF48051DC48FFF730FC82
:100B300008E0D648407A302804D14FF40061D74805
:100B4000FFF726FCD148007B312805D14FF48061A6
:100B5000D248FFF71DFC08E0CC48007B302804D1C8
:100B60004FF40071CD48FFF713FCC848C07B312813
:100B700004D18021CA48FFF70BFC07E0C348C07BC3
:100B8000302803D14021C648FFF702FCBF48807CD3
:100B9000312805D12021C248FFF7FAFB08E03DE3E8
:100BA000BA48807C302803D11021BD48FFF7F0FB04
:100BB000B648407D312804D10821B948FFF7E8FB49
:100BC00007E0B248407D302803D10421B448FFF744
:100BD000DFFBAE48007E312804D10221B048FFF788
:100BE000D7FB07E0A948007E302803D10121AC489B
:100BF000FFF7CEFBA548C07E312805D14FF48051C8
:100C0000A848FFF7C5FB08E0A048C07E302804D103
:100C10004FF40061A348FFF7BBFB9C48807F31285D
:100C200005D14FF48051A048FFF7B2FB08E0974888
:100C3000807F302804D14FF400619B48FFF7A8FB68
:100C4000924890F82100312805D14FF480719648E0
:100C5000FFF79EFB09E08D4890F82100302804D171
:100C60004FF400718F48FFF793FB884890F82400F9
:100C7000312805D14FF480718A48FFF789FB08E0DD
:100C8000824890F82400302803D180218548FFF75E
:100C90007FFB7E4890F82700312804D1402181480D
:100CA000FFF776FB09E0794890F82700302804D157
:100CB0004FF480717948FFF76BFB744890F82A0075
:100CC000312804D180217548FFF762FB08E06F48A6
:100CD00090F82A00302803D140217048FFF758FBD4
:100CE0006A4890F82D00312804D120216B48FFF785
:100CF0004FFB08E0654890F82D00302803D1102103
:100D00006648FFF745FB614890F83000312804D170
:100D100008216248FFF73CFB08E05C4890F830008F
:100D2000302803D104215D48FFF732FB574890F883
:100D30003300312805D14FF400415948FFF728FB13
:100D400009E0524890F83300302804D14FF4804134
:100D50005348FFF71DFB4D4890F83600312805D168
:100D60004FF400514E48FFF713FB09E0474890F855
:100D70003600302804D14FF480514948FFF708FB72
:100D8000424890F83900312805D14FF400614448B9
:100D9000FFF7FEFA09E03D4890F83900302804D109
:100DA0004FF480613E48FFF7F3FA384890F83C0072
:100DB000312805D14FF400713948FFF7E9FA09E00D
:100DC000324890F83C00302804D14FF48071344808
:100DD000FFF7DEFA2D4890F83F00312805D14FF497
:100DE00000412D48FFF7D4FA09E0284890F83F0069
:100DF000302804D14FF480412748FFF7C9FA23482F
:100E000090F84200312805D14FF400512248FFF7F5
:100E1000BFFA09E01D4890F84200302804D14FF491
:100E200080511D48FFF7B4FA184890F84500312862
:100E300005D14FF400511B48FFF7AAFA08E0134808
:100E400090F84500302803D140211848FFF7A0FA58
:100E50000E4890F84800312804D102211448FFF7C9
:100E600097FA08E0094890F84800302803D101219A
:100E70000F48FFF78DFA054890F84B00312819D13B
:100E800008210B48FFF784FA1DE00000380000201D
:100E90000000002080012142000C014000200140A0
:100EA00000140140001001400008014000180140FA
:100EB000001C0140E44890F84B00302803D1042185
:100EC000E248FFF765FAE04890F84E00312804D177
:100ED0002021DE48FFF75CFA08E0DB4890F84E007E
:100EE000302803D11021D948FFF752FAD64890F89C
:100EF0005100312804D18021D448FFF749FA08E095
:100F0000D14890F85100302803D14021CF48FFF755
:100F10003FFACD4890F85400312805D14FF40071C4
:100F2000CA48FFF735FA09E0C74890F8540030285E
:100F300004D14FF48071C548FFF72AFAC24890F8EF
:100F40005700312804D10121C148FFF721FA09E0F7
:100F5000BD4890F85700302804D14FF48061BB4859
:100F6000FFF716FAB84890F85A00312804D1042146
:100F7000B748FFF70DFA08E0B34890F85A00302858
:100F800003D10221B248FFF703FAAF4890F85D00A1
:100F9000312804D10121AF48FFF7FAF908E0AA4847
:100FA00090F85D00302803D10421AA48FFF7F0F93A
:100FB000A54890F86000312804D10421A648FFF725
:100FC000E7F908E0A04890F86000302803D102213A
:100FD000A148FFF7DDF99C4890F86300312804D15F
:100FE00010219D48FFF7D4F908E0974890F8630076
:100FF000302803D108219848FFF7CAF9924890F8A1
:101000006600312804D140219348FFF7C1F908E078
:101010008D4890F86600302803D120218E48FFF7D4
:10102000B7F9894890F86900312804D1102188481F
:10103000FFF7AEF908E0844890F86900302803D142
:1010400080218548FFF7A4F97F4890F86C0031288B
:1010500004D101218148FFF79BF908E07A4890F814
:101060006C00302803D120217948FFF791F97648A8
:1010700090F86F00312804D104217848FFF788F9EF
:1010800008E0714890F86F00302803D102217348BE
:10109000FFF77EF96C4890F87200312805D14FF4C3
:1010A00080516A48FFF774F909E0674890F87200C8
:1010B000302804D14FF400616448FFF769F96248B1
:1010C00090F87500312805D14FF480415F48FFF753
:1010D0005FF909E05C4890F87500302804D14FF4BE
:1010E00000515A48FFF754F9574890F878003128D2
:1010F00004D180215748FFF74BF908E0524890F897
:101100007800302803D102215548FFF741F94E48B5
:1011100090F87B00312805D14FF400714D48FFF75E
:1011200037F909E0484890F87B00302804D14FF4A3
:1011300080714848FFF72CF9434890F87E00312829
:1011400005D14FF400614348FFF722F909E03E481A
:1011500090F87E00302804D14FF480613D48FFF7BD
:1011600017F9394890F88100312805D14FF4005122
:101170003848FFF70DF909E0334890F8810030282E
:1011800004D14FF480513348FFF702F92E4890F80C
:101190008400312805D14FF400412E48FFF7F8F8BC
:1011A00009E0294890F88400302804D14FF48041A8
:1011B0002848FFF7EDF8244890F88700312805D13A
:1011C0004FF400612548FFF7E3F809E01E4890F866
:1011D0008700302804D14FF480612048FFF7D8F809
:1011E000194890F88A00312804D120211948FFF7C6
:1011F000CFF809E0144890F88A00302804D14FF461
:1012000000411248FFF7C4F80F4890F88D003128CC
:1012100005D14FF400711148FFF7BAF808E00A4809
:1012200090F88D00302803D120210C48FFF7B0F84A
:101230000A20FFF7FDFB0B480068902802D1002030
:10124000084908602AE4000038000020001C014022
:10125000001001400018014000080140000C01404E
:10126000002001400000002010B586B00446012196
:1012700044F20400FFF76EF94FF40070ADF814006B
:1012800003208DF8160018208DF8170005A91C48BA
:10129000FEF7F3FF4FF48060ADF8140004208DF8E2
:1012A000170005A91648FEF7E8FF25208DF8000075
:1012B00003208DF801008DF8020001208DF8030055
:1012C0006846FFF703F901940020ADF80800ADF877
:1012D0000A00ADF80C00ADF810000C20ADF80E00BF
:1012E00001A90848FFF70CFB012240F225510548EF
:1012F000FFF7E0FA01210348FFF7A6FA06B010BD98
:1013000000080140003801402813000800000020B8
:10131000380000006C01000860130008380000204D
:10132000F8060000880100080000000000A24A043E
:101330000000000000000000010203040607080985
:10134000000000000000000000000000000001029A
:10135000030401020304060708090204060800004A
:0400000508000131BD
:00000001FF
